{
  "_format": "hh-sol-artifact-1",
  "contractName": "VoterRegistration",
  "sourceName": "contracts/VoterRegistration.sol",
  "abi": [
    {
      "anonymous": false,
      "inputs": [
        {
          "indexed": true,
          "internalType": "address",
          "name": "voter",
          "type": "address"
        }
      ],
      "name": "RegistrationRequested",
      "type": "event"
    },
    {
      "anonymous": false,
      "inputs": [
        {
          "indexed": true,
          "internalType": "address",
          "name": "voter",
          "type": "address"
        }
      ],
      "name": "VoterRegistered",
      "type": "event"
    },
    {
      "anonymous": false,
      "inputs": [
        {
          "indexed": true,
          "internalType": "address",
          "name": "voter",
          "type": "address"
        }
      ],
      "name": "VoterUnregistered",
      "type": "event"
    },
    {
      "inputs": [],
      "name": "admin",
      "outputs": [
        {
          "internalType": "address",
          "name": "",
          "type": "address"
        }
      ],
      "stateMutability": "view",
      "type": "function"
    },
    {
      "inputs": [
        {
          "internalType": "uint256",
          "name": "_id",
          "type": "uint256"
        }
      ],
      "name": "getVoter",
      "outputs": [
        {
          "components": [
            {
              "internalType": "address",
              "name": "voterAddress",
              "type": "address"
            },
            {
              "internalType": "string",
              "name": "voterCredential",
              "type": "string"
            },
            {
              "internalType": "bool",
              "name": "isApproved",
              "type": "bool"
            },
            {
              "internalType": "bool",
              "name": "voted",
              "type": "bool"
            },
            {
              "internalType": "bool",
              "name": "registered",
              "type": "bool"
            }
          ],
          "internalType": "struct VoterRegistration.VoterData",
          "name": "",
          "type": "tuple"
        }
      ],
      "stateMutability": "view",
      "type": "function"
    },
    {
      "inputs": [
        {
          "internalType": "uint256",
          "name": "_id",
          "type": "uint256"
        }
      ],
      "name": "hasVoted",
      "outputs": [
        {
          "internalType": "bool",
          "name": "",
          "type": "bool"
        }
      ],
      "stateMutability": "view",
      "type": "function"
    },
    {
      "inputs": [
        {
          "internalType": "uint256",
          "name": "_id",
          "type": "uint256"
        }
      ],
      "name": "isRegistered",
      "outputs": [
        {
          "internalType": "bool",
          "name": "",
          "type": "bool"
        }
      ],
      "stateMutability": "view",
      "type": "function"
    },
    {
      "inputs": [
        {
          "internalType": "uint256",
          "name": "_id",
          "type": "uint256"
        }
      ],
      "name": "registerVoter",
      "outputs": [],
      "stateMutability": "nonpayable",
      "type": "function"
    },
    {
      "inputs": [
        {
          "internalType": "string",
          "name": "_credentials",
          "type": "string"
        },
        {
          "internalType": "bool",
          "name": "_isApproved",
          "type": "bool"
        }
      ],
      "name": "registrationReqest",
      "outputs": [],
      "stateMutability": "nonpayable",
      "type": "function"
    },
    {
      "inputs": [
        {
          "internalType": "uint256",
          "name": "",
          "type": "uint256"
        }
      ],
      "name": "registrationRequests",
      "outputs": [
        {
          "internalType": "address",
          "name": "voterAddress",
          "type": "address"
        },
        {
          "internalType": "string",
          "name": "voterCredential",
          "type": "string"
        },
        {
          "internalType": "bool",
          "name": "isApproved",
          "type": "bool"
        },
        {
          "internalType": "bool",
          "name": "voted",
          "type": "bool"
        },
        {
          "internalType": "bool",
          "name": "registered",
          "type": "bool"
        }
      ],
      "stateMutability": "view",
      "type": "function"
    },
    {
      "inputs": [],
      "name": "registrationRequestsCount",
      "outputs": [
        {
          "internalType": "uint256",
          "name": "",
          "type": "uint256"
        }
      ],
      "stateMutability": "view",
      "type": "function"
    },
    {
      "inputs": [
        {
          "internalType": "uint256",
          "name": "_id",
          "type": "uint256"
        }
      ],
      "name": "unregisterVoter",
      "outputs": [],
      "stateMutability": "nonpayable",
      "type": "function"
    },
    {
      "inputs": [
        {
          "internalType": "uint256",
          "name": "",
          "type": "uint256"
        }
      ],
      "name": "voters",
      "outputs": [
        {
          "internalType": "address",
          "name": "voterAddress",
          "type": "address"
        },
        {
          "internalType": "string",
          "name": "voterCredential",
          "type": "string"
        },
        {
          "internalType": "bool",
          "name": "isApproved",
          "type": "bool"
        },
        {
          "internalType": "bool",
          "name": "voted",
          "type": "bool"
        },
        {
          "internalType": "bool",
          "name": "registered",
          "type": "bool"
        }
      ],
      "stateMutability": "view",
      "type": "function"
    },
    {
      "inputs": [],
      "name": "votersCount",
      "outputs": [
        {
          "internalType": "uint256",
          "name": "",
          "type": "uint256"
        }
      ],
      "stateMutability": "view",
      "type": "function"
    }
  ],
  "bytecode": "0x608060405234801561001057600080fd5b506117f3806100206000396000f3fe608060405234801561001057600080fd5b50600436106100a95760003560e01c8063a13f2f8d11610071578063a13f2f8d14610168578063d07bff0c14610184578063da58c7d9146101b4578063ecca031f146101e8578063f41d16aa14610218578063f851a44014610236576100a9565b80630eff7daa146100ae578063579a6988146100ca5780636821e337146100fa5780636b3c6fd61461011657806398c079381461014a575b600080fd5b6100c860048036038101906100c39190610fe7565b610254565b005b6100e460048036038101906100df919061103b565b6104dd565b6040516100f191906112de565b60405180910390f35b610114600480360381019061010f919061103b565b61050a565b005b610130600480360381019061012b919061103b565b6106a8565b604051610141959493929190611284565b60405180910390f35b6101526107ad565b60405161015f91906113db565b60405180910390f35b610182600480360381019061017d919061103b565b6107b3565b005b61019e6004803603810190610199919061103b565b610b16565b6040516101ab91906113b9565b60405180910390f35b6101ce60048036038101906101c9919061103b565b610c7c565b6040516101df959493929190611284565b60405180910390f35b61020260048036038101906101fd919061103b565b610d81565b60405161020f91906112de565b60405180910390f35b610220610dae565b60405161022d91906113db565b60405180910390f35b61023e610db4565b60405161024b9190611269565b60405180910390f35b80610294576040517f08c379a000000000000000000000000000000000000000000000000000000000815260040161028b90611319565b60405180910390fd5b600260009054906101000a900473ffffffffffffffffffffffffffffffffffffffff1673ffffffffffffffffffffffffffffffffffffffff163373ffffffffffffffffffffffffffffffffffffffff161415610325576040517f08c379a000000000000000000000000000000000000000000000000000000000815260040161031c90611339565b60405180910390fd5b6040518060a001604052803373ffffffffffffffffffffffffffffffffffffffff16815260200183815260200182151581526020016000151581526020016000151581525060046000600154815260200190815260200160002060008201518160000160006101000a81548173ffffffffffffffffffffffffffffffffffffffff021916908373ffffffffffffffffffffffffffffffffffffffff16021790555060208201518160010190805190602001906103e2929190610dda565b5060408201518160020160006101000a81548160ff02191690831515021790555060608201518160020160016101000a81548160ff02191690831515021790555060808201518160020160026101000a81548160ff02191690831515021790555090505060046000600154815260200190815260200160002060000160009054906101000a900473ffffffffffffffffffffffffffffffffffffffff1673ffffffffffffffffffffffffffffffffffffffff167f1effde039c72876427a2e2c21076926afff116bc3340151bc362d31f9dadca3660405160405180910390a2600160008154809291906104d490611566565b91905055505050565b60006003600083815260200190815260200160002060020160029054906101000a900460ff169050919050565b600260009054906101000a900473ffffffffffffffffffffffffffffffffffffffff1673ffffffffffffffffffffffffffffffffffffffff163373ffffffffffffffffffffffffffffffffffffffff161461059a576040517f08c379a000000000000000000000000000000000000000000000000000000000815260040161059190611379565b60405180910390fd5b6003600082815260200190815260200160002060020160029054906101000a900460ff166105fd576040517f08c379a00000000000000000000000000000000000000000000000000000000081526004016105f490611359565b60405180910390fd5b60006003600083815260200190815260200160002060020160026101000a81548160ff0219169083151502179055506003600082815260200190815260200160002060000160009054906101000a900473ffffffffffffffffffffffffffffffffffffffff1673ffffffffffffffffffffffffffffffffffffffff167f25fc2460244a2fff1d6879302ea1d6f3e684e599d76c012a22e42d5bb61cc5d760405160405180910390a250565b60046020528060005260406000206000915090508060000160009054906101000a900473ffffffffffffffffffffffffffffffffffffffff16908060010180546106f190611503565b80601f016020809104026020016040519081016040528092919081815260200182805461071d90611503565b801561076a5780601f1061073f5761010080835404028352916020019161076a565b820191906000526020600020905b81548152906001019060200180831161074d57829003601f168201915b5050505050908060020160009054906101000a900460ff16908060020160019054906101000a900460ff16908060020160029054906101000a900460ff16905085565b60005481565b600260009054906101000a900473ffffffffffffffffffffffffffffffffffffffff1673ffffffffffffffffffffffffffffffffffffffff163373ffffffffffffffffffffffffffffffffffffffff1614610843576040517f08c379a000000000000000000000000000000000000000000000000000000000815260040161083a90611379565b60405180910390fd5b600073ffffffffffffffffffffffffffffffffffffffff166004600083815260200190815260200160002060000160009054906101000a900473ffffffffffffffffffffffffffffffffffffffff1673ffffffffffffffffffffffffffffffffffffffff1614156108e9576040517f08c379a00000000000000000000000000000000000000000000000000000000081526004016108e0906112f9565b60405180910390fd5b6004600082815260200190815260200160002060020160009054906101000a900460ff1661094c576040517f08c379a000000000000000000000000000000000000000000000000000000000815260040161094390611399565b60405180910390fd5b60046000828152602001908152602001600020600360008381526020019081526020016000206000820160009054906101000a900473ffffffffffffffffffffffffffffffffffffffff168160000160006101000a81548173ffffffffffffffffffffffffffffffffffffffff021916908373ffffffffffffffffffffffffffffffffffffffff16021790555060018201816001019080546109ed90611503565b6109f8929190610e60565b506002820160009054906101000a900460ff168160020160006101000a81548160ff0219169083151502179055506002820160019054906101000a900460ff168160020160016101000a81548160ff0219169083151502179055506002820160029054906101000a900460ff168160020160026101000a81548160ff021916908315150217905550905050600080815480929190610a9590611566565b91905055506003600082815260200190815260200160002060000160009054906101000a900473ffffffffffffffffffffffffffffffffffffffff1673ffffffffffffffffffffffffffffffffffffffff167fb6be2187d059cc2a55fe29e0e503b566e1e0f8c8780096e185429350acffd3dd60405160405180910390a250565b610b1e610eed565b600360008381526020019081526020016000206040518060a00160405290816000820160009054906101000a900473ffffffffffffffffffffffffffffffffffffffff1673ffffffffffffffffffffffffffffffffffffffff1673ffffffffffffffffffffffffffffffffffffffff168152602001600182018054610ba290611503565b80601f0160208091040260200160405190810160405280929190818152602001828054610bce90611503565b8015610c1b5780601f10610bf057610100808354040283529160200191610c1b565b820191906000526020600020905b815481529060010190602001808311610bfe57829003601f168201915b505050505081526020016002820160009054906101000a900460ff161515151581526020016002820160019054906101000a900460ff161515151581526020016002820160029054906101000a900460ff1615151515815250509050919050565b60036020528060005260406000206000915090508060000160009054906101000a900473ffffffffffffffffffffffffffffffffffffffff1690806001018054610cc590611503565b80601f0160208091040260200160405190810160405280929190818152602001828054610cf190611503565b8015610d3e5780601f10610d1357610100808354040283529160200191610d3e565b820191906000526020600020905b815481529060010190602001808311610d2157829003601f168201915b5050505050908060020160009054906101000a900460ff16908060020160019054906101000a900460ff16908060020160029054906101000a900460ff16905085565b60006003600083815260200190815260200160002060020160019054906101000a900460ff169050919050565b60015481565b600260009054906101000a900473ffffffffffffffffffffffffffffffffffffffff1681565b828054610de690611503565b90600052602060002090601f016020900481019282610e085760008555610e4f565b82601f10610e2157805160ff1916838001178555610e4f565b82800160010185558215610e4f579182015b82811115610e4e578251825591602001919060010190610e33565b5b509050610e5c9190610f38565b5090565b828054610e6c90611503565b90600052602060002090601f016020900481019282610e8e5760008555610edc565b82601f10610e9f5780548555610edc565b82800160010185558215610edc57600052602060002091601f016020900482015b82811115610edb578254825591600101919060010190610ec0565b5b509050610ee99190610f38565b5090565b6040518060a00160405280600073ffffffffffffffffffffffffffffffffffffffff168152602001606081526020016000151581526020016000151581526020016000151581525090565b5b80821115610f51576000816000905550600101610f39565b5090565b6000610f68610f638461141b565b6113f6565b905082815260208101848484011115610f8057600080fd5b610f8b8482856114c1565b509392505050565b600081359050610fa28161178f565b92915050565b600082601f830112610fb957600080fd5b8135610fc9848260208601610f55565b91505092915050565b600081359050610fe1816117a6565b92915050565b60008060408385031215610ffa57600080fd5b600083013567ffffffffffffffff81111561101457600080fd5b61102085828601610fa8565b925050602061103185828601610f93565b9150509250929050565b60006020828403121561104d57600080fd5b600061105b84828501610fd2565b91505092915050565b61106d81611479565b82525050565b61107c81611479565b82525050565b61108b8161148b565b82525050565b61109a8161148b565b82525050565b60006110ab8261144c565b6110b58185611457565b93506110c58185602086016114d0565b6110ce8161163c565b840191505092915050565b60006110e48261144c565b6110ee8185611468565b93506110fe8185602086016114d0565b6111078161163c565b840191505092915050565b600061111f600f83611468565b915061112a8261164d565b602082019050919050565b6000611142602783611468565b915061114d82611676565b604082019050919050565b6000611165601e83611468565b9150611170826116c5565b602082019050919050565b6000611188601783611468565b9150611193826116ee565b602082019050919050565b60006111ab601b83611468565b91506111b682611717565b602082019050919050565b60006111ce602a83611468565b91506111d982611740565b604082019050919050565b600060a0830160008301516111fc6000860182611064565b506020830151848203602086015261121482826110a0565b91505060408301516112296040860182611082565b50606083015161123c6060860182611082565b50608083015161124f6080860182611082565b508091505092915050565b611263816114b7565b82525050565b600060208201905061127e6000830184611073565b92915050565b600060a0820190506112996000830188611073565b81810360208301526112ab81876110d9565b90506112ba6040830186611091565b6112c76060830185611091565b6112d46080830184611091565b9695505050505050565b60006020820190506112f36000830184611091565b92915050565b6000602082019050818103600083015261131281611112565b9050919050565b6000602082019050818103600083015261133281611135565b9050919050565b6000602082019050818103600083015261135281611158565b9050919050565b600060208201905081810360008301526113728161117b565b9050919050565b600060208201905081810360008301526113928161119e565b9050919050565b600060208201905081810360008301526113b2816111c1565b9050919050565b600060208201905081810360008301526113d381846111e4565b905092915050565b60006020820190506113f0600083018461125a565b92915050565b6000611400611411565b905061140c8282611535565b919050565b6000604051905090565b600067ffffffffffffffff8211156114365761143561160d565b5b61143f8261163c565b9050602081019050919050565b600081519050919050565b600082825260208201905092915050565b600082825260208201905092915050565b600061148482611497565b9050919050565b60008115159050919050565b600073ffffffffffffffffffffffffffffffffffffffff82169050919050565b6000819050919050565b82818337600083830152505050565b60005b838110156114ee5780820151818401526020810190506114d3565b838111156114fd576000848401525b50505050565b6000600282049050600182168061151b57607f821691505b6020821081141561152f5761152e6115de565b5b50919050565b61153e8261163c565b810181811067ffffffffffffffff8211171561155d5761155c61160d565b5b80604052505050565b6000611571826114b7565b91507fffffffffffffffffffffffffffffffffffffffffffffffffffffffffffffffff8214156115a4576115a36115af565b5b600182019050919050565b7f4e487b7100000000000000000000000000000000000000000000000000000000600052601160045260246000fd5b7f4e487b7100000000000000000000000000000000000000000000000000000000600052602260045260246000fd5b7f4e487b7100000000000000000000000000000000000000000000000000000000600052604160045260246000fd5b6000601f19601f8301169050919050565b7f566f746572206e6f7420666f756e640000000000000000000000000000000000600082015250565b7f566f74657220686173206e6f74206265656e20617070726f76656420746f207260008201527f6567697374657200000000000000000000000000000000000000000000000000602082015250565b7f41646d696e2063616e277420726567697374657220746f20766f74696e670000600082015250565b7f566f746572206973206e6f742072656769737465726564000000000000000000600082015250565b7f4f6e6c792061646d696e2063616e206578656375746520746869730000000000600082015250565b7f566f746572206973206e6f742079657420617070726f76656420666f7220726560008201527f67697374726174696f6e00000000000000000000000000000000000000000000602082015250565b6117988161148b565b81146117a357600080fd5b50565b6117af816114b7565b81146117ba57600080fd5b5056fea2646970667358221220db1cb5f680ade73ee79be7e3e116a63b17126cbb0901e78e419635cacf80e73464736f6c63430008040033",
  "linkReferences": {},
  "deployedLinkReferences": {}
}