{
  "_format": "hh-sol-artifact-1",
  "contractName": "VoteTally",
  "sourceName": "contracts/VoteTally.sol",
  "abi": [
    {
      "inputs": [
        {
          "internalType": "address",
          "name": "_votingContract",
          "type": "address"
        }
      ],
      "stateMutability": "nonpayable",
      "type": "constructor"
    },
    {
      "anonymous": false,
      "inputs": [
        {
          "indexed": false,
          "internalType": "uint256",
          "name": "winningCandidateId",
          "type": "uint256"
        },
        {
          "indexed": false,
          "internalType": "string",
          "name": "winnerName",
          "type": "string"
        },
        {
          "indexed": false,
          "internalType": "uint256",
          "name": "voteCount",
          "type": "uint256"
        }
      ],
      "name": "ResultsAnnounced",
      "type": "event"
    },
    {
      "inputs": [],
      "name": "announceResults",
      "outputs": [],
      "stateMutability": "nonpayable",
      "type": "function"
    },
    {
      "inputs": [],
      "name": "resultsAnnounced",
      "outputs": [
        {
          "internalType": "bool",
          "name": "",
          "type": "bool"
        }
      ],
      "stateMutability": "view",
      "type": "function"
    },
    {
      "inputs": [],
      "name": "votingContract",
      "outputs": [
        {
          "internalType": "contract Voting",
          "name": "",
          "type": "address"
        }
      ],
      "stateMutability": "view",
      "type": "function"
    },
    {
      "inputs": [],
      "name": "winningCandidateId",
      "outputs": [
        {
          "internalType": "uint256",
          "name": "",
          "type": "uint256"
        }
      ],
      "stateMutability": "view",
      "type": "function"
    }
  ],
  "bytecode": "0x608060405234801561001057600080fd5b50604051610d73380380610d738339818101604052810190610032919061008d565b806000806101000a81548173ffffffffffffffffffffffffffffffffffffffff021916908373ffffffffffffffffffffffffffffffffffffffff160217905550506100ff565b600081519050610087816100e8565b92915050565b60006020828403121561009f57600080fd5b60006100ad84828501610078565b91505092915050565b60006100c1826100c8565b9050919050565b600073ffffffffffffffffffffffffffffffffffffffff82169050919050565b6100f1816100b6565b81146100fc57600080fd5b50565b610c658061010e6000396000f3fe608060405234801561001057600080fd5b506004361061004c5760003560e01c80630815ac70146100515780630ea9443c1461005b5780631eb8553814610079578063c1fc006a14610097575b600080fd5b6100596100b5565b005b61006361058a565b6040516100709190610877565b60405180910390f35b61008161059d565b60405161008e919061090d565b60405180910390f35b61009f6105a3565b6040516100ac9190610892565b60405180910390f35b60008054906101000a900473ffffffffffffffffffffffffffffffffffffffff1673ffffffffffffffffffffffffffffffffffffffff1663f851a4406040518163ffffffff1660e01b815260040160206040518083038186803b15801561011b57600080fd5b505afa15801561012f573d6000803e3d6000fd5b505050506040513d601f19601f820116820180604052508101906101539190610715565b73ffffffffffffffffffffffffffffffffffffffff163373ffffffffffffffffffffffffffffffffffffffff16146101c0576040517f08c379a00000000000000000000000000000000000000000000000000000000081526004016101b7906108ed565b60405180910390fd5b60008054906101000a900473ffffffffffffffffffffffffffffffffffffffff1673ffffffffffffffffffffffffffffffffffffffff16631ea736e06040518163ffffffff1660e01b815260040160206040518083038186803b15801561022657600080fd5b505afa15801561023a573d6000803e3d6000fd5b505050506040513d601f19601f8201168201806040525081019061025e919061077f565b421161029f576040517f08c379a0000000000000000000000000000000000000000000000000000000008152600401610296906108ad565b60405180910390fd5b600060149054906101000a900460ff16156102ef576040517f08c379a00000000000000000000000000000000000000000000000000000000081526004016102e6906108cd565b60405180910390fd5b6000808060009054906101000a900473ffffffffffffffffffffffffffffffffffffffff1673ffffffffffffffffffffffffffffffffffffffff1663a9a981a36040518163ffffffff1660e01b815260040160206040518083038186803b15801561035957600080fd5b505afa15801561036d573d6000803e3d6000fd5b505050506040513d601f19601f82011682018060405250810190610391919061077f565b905060005b818110156104735760008060009054906101000a900473ffffffffffffffffffffffffffffffffffffffff1673ffffffffffffffffffffffffffffffffffffffff1663b2c2f2e8836040518263ffffffff1660e01b81526004016103fa919061090d565b60206040518083038186803b15801561041257600080fd5b505afa158015610426573d6000803e3d6000fd5b505050506040513d601f19601f8201168201806040525081019061044a919061077f565b90508381111561045f57809350816001819055505b50808061046b90610aa8565b915050610396565b506001600060146101000a81548160ff02191690831515021790555060008060009054906101000a900473ffffffffffffffffffffffffffffffffffffffff1673ffffffffffffffffffffffffffffffffffffffff166335b8e8206001546040518263ffffffff1660e01b81526004016104ed919061090d565b60006040518083038186803b15801561050557600080fd5b505afa158015610519573d6000803e3d6000fd5b505050506040513d6000823e3d601f19601f82011682018060405250810190610542919061073e565b6000015190507f3fa3b7d80059a82fa2369e17cea07cee52b9c1f6d5a35677433b2249fc5cc5f7600154828560405161057d93929190610928565b60405180910390a1505050565b600060149054906101000a900460ff1681565b60015481565b60008054906101000a900473ffffffffffffffffffffffffffffffffffffffff1681565b60006105da6105d58461098b565b610966565b9050828152602081018484840111156105f257600080fd5b6105fd848285610a44565b509392505050565b60008151905061061481610c01565b92915050565b600082601f83011261062b57600080fd5b815161063b8482602086016105c7565b91505092915050565b60006080828403121561065657600080fd5b6106606080610966565b9050600082015167ffffffffffffffff81111561067c57600080fd5b6106888482850161061a565b600083015250602082015167ffffffffffffffff8111156106a857600080fd5b6106b48482850161061a565b602083015250604082015167ffffffffffffffff8111156106d457600080fd5b6106e08482850161061a565b60408301525060606106f484828501610700565b60608301525092915050565b60008151905061070f81610c18565b92915050565b60006020828403121561072757600080fd5b600061073584828501610605565b91505092915050565b60006020828403121561075057600080fd5b600082015167ffffffffffffffff81111561076a57600080fd5b61077684828501610644565b91505092915050565b60006020828403121561079157600080fd5b600061079f84828501610700565b91505092915050565b6107b1816109ea565b82525050565b6107c081610a20565b82525050565b60006107d1826109bc565b6107db81856109c7565b93506107eb818560208601610a44565b6107f481610b4f565b840191505092915050565b600061080c601b836109c7565b915061081782610b60565b602082019050919050565b600061082f6023836109c7565b915061083a82610b89565b604082019050919050565b6000610852601b836109c7565b915061085d82610bd8565b602082019050919050565b61087181610a16565b82525050565b600060208201905061088c60008301846107a8565b92915050565b60006020820190506108a760008301846107b7565b92915050565b600060208201905081810360008301526108c6816107ff565b9050919050565b600060208201905081810360008301526108e681610822565b9050919050565b6000602082019050818103600083015261090681610845565b9050919050565b60006020820190506109226000830184610868565b92915050565b600060608201905061093d6000830186610868565b818103602083015261094f81856107c6565b905061095e6040830184610868565b949350505050565b6000610970610981565b905061097c8282610a77565b919050565b6000604051905090565b600067ffffffffffffffff8211156109a6576109a5610b20565b5b6109af82610b4f565b9050602081019050919050565b600081519050919050565b600082825260208201905092915050565b60006109e3826109f6565b9050919050565b60008115159050919050565b600073ffffffffffffffffffffffffffffffffffffffff82169050919050565b6000819050919050565b6000610a2b82610a32565b9050919050565b6000610a3d826109f6565b9050919050565b60005b83811015610a62578082015181840152602081019050610a47565b83811115610a71576000848401525b50505050565b610a8082610b4f565b810181811067ffffffffffffffff82111715610a9f57610a9e610b20565b5b80604052505050565b6000610ab382610a16565b91507fffffffffffffffffffffffffffffffffffffffffffffffffffffffffffffffff821415610ae657610ae5610af1565b5b600182019050919050565b7f4e487b7100000000000000000000000000000000000000000000000000000000600052601160045260246000fd5b7f4e487b7100000000000000000000000000000000000000000000000000000000600052604160045260246000fd5b6000601f19601f8301169050919050565b7f566f74696e6720706572696f6420686173206e6f7420656e6465640000000000600082015250565b7f526573756c7473206861766520616c7265616479206265656e20616e6e6f756e60008201527f6365640000000000000000000000000000000000000000000000000000000000602082015250565b7f4f6e6c792061646d696e2063616e206578656375746520746869730000000000600082015250565b610c0a816109d8565b8114610c1557600080fd5b50565b610c2181610a16565b8114610c2c57600080fd5b5056fea2646970667358221220f0be12ebbf24d1bf63e4a236c3e5ab76cabadc404c81f10ac6701ee94a9f3fa164736f6c63430008040033",
  "linkReferences": {},
  "deployedLinkReferences": {}
}