{
  "_format": "hh-sol-artifact-1",
  "contractName": "Voting",
  "sourceName": "contracts/Voting.sol",
  "abi": [
    {
      "inputs": [
        {
          "internalType": "address",
          "name": "_voterRegistration",
          "type": "address"
        }
      ],
      "stateMutability": "nonpayable",
      "type": "constructor"
    },
    {
      "anonymous": false,
      "inputs": [
        {
          "indexed": true,
          "internalType": "uint256",
          "name": "candidateId",
          "type": "uint256"
        },
        {
          "indexed": false,
          "internalType": "string",
          "name": "name",
          "type": "string"
        },
        {
          "indexed": true,
          "internalType": "string",
          "name": "partyName",
          "type": "string"
        }
      ],
      "name": "CandidateAdded",
      "type": "event"
    },
    {
      "anonymous": false,
      "inputs": [
        {
          "indexed": true,
          "internalType": "address",
          "name": "voter",
          "type": "address"
        },
        {
          "indexed": true,
          "internalType": "uint256",
          "name": "candidateId",
          "type": "uint256"
        },
        {
          "indexed": true,
          "internalType": "string",
          "name": "partyName",
          "type": "string"
        }
      ],
      "name": "VoteCast",
      "type": "event"
    },
    {
      "inputs": [
        {
          "internalType": "string",
          "name": "_name",
          "type": "string"
        },
        {
          "internalType": "string",
          "name": "_partyName",
          "type": "string"
        },
        {
          "internalType": "string",
          "name": "_partyLogoURL",
          "type": "string"
        }
      ],
      "name": "addCandidate",
      "outputs": [],
      "stateMutability": "nonpayable",
      "type": "function"
    },
    {
      "inputs": [],
      "name": "admin",
      "outputs": [
        {
          "internalType": "address",
          "name": "",
          "type": "address"
        }
      ],
      "stateMutability": "view",
      "type": "function"
    },
    {
      "inputs": [],
      "name": "candidateCount",
      "outputs": [
        {
          "internalType": "uint256",
          "name": "",
          "type": "uint256"
        }
      ],
      "stateMutability": "view",
      "type": "function"
    },
    {
      "inputs": [
        {
          "internalType": "uint256",
          "name": "",
          "type": "uint256"
        }
      ],
      "name": "candidates",
      "outputs": [
        {
          "internalType": "string",
          "name": "name",
          "type": "string"
        },
        {
          "internalType": "string",
          "name": "partyName",
          "type": "string"
        },
        {
          "internalType": "string",
          "name": "partyLogoURL",
          "type": "string"
        },
        {
          "internalType": "uint256",
          "name": "voteCount",
          "type": "uint256"
        }
      ],
      "stateMutability": "view",
      "type": "function"
    },
    {
      "inputs": [
        {
          "internalType": "uint256",
          "name": "_voterId",
          "type": "uint256"
        },
        {
          "internalType": "uint256",
          "name": "_candidateId",
          "type": "uint256"
        },
        {
          "internalType": "string",
          "name": "_partyName",
          "type": "string"
        }
      ],
      "name": "castVote",
      "outputs": [],
      "stateMutability": "nonpayable",
      "type": "function"
    },
    {
      "inputs": [
        {
          "internalType": "uint256",
          "name": "_candidateId",
          "type": "uint256"
        }
      ],
      "name": "getCandidate",
      "outputs": [
        {
          "components": [
            {
              "internalType": "string",
              "name": "name",
              "type": "string"
            },
            {
              "internalType": "string",
              "name": "partyName",
              "type": "string"
            },
            {
              "internalType": "string",
              "name": "partyLogoURL",
              "type": "string"
            },
            {
              "internalType": "uint256",
              "name": "voteCount",
              "type": "uint256"
            }
          ],
          "internalType": "struct Voting.Candidate",
          "name": "",
          "type": "tuple"
        }
      ],
      "stateMutability": "view",
      "type": "function"
    },
    {
      "inputs": [
        {
          "internalType": "uint256",
          "name": "_candidateId",
          "type": "uint256"
        }
      ],
      "name": "getVoteCount",
      "outputs": [
        {
          "internalType": "uint256",
          "name": "",
          "type": "uint256"
        }
      ],
      "stateMutability": "view",
      "type": "function"
    },
    {
      "inputs": [
        {
          "internalType": "uint256",
          "name": "_startTime",
          "type": "uint256"
        },
        {
          "internalType": "uint256",
          "name": "_endTime",
          "type": "uint256"
        },
        {
          "internalType": "string",
          "name": "_orgName",
          "type": "string"
        }
      ],
      "name": "setVotingParameters",
      "outputs": [],
      "stateMutability": "nonpayable",
      "type": "function"
    },
    {
      "inputs": [],
      "name": "voterRegistration",
      "outputs": [
        {
          "internalType": "contract VoterRegistration",
          "name": "",
          "type": "address"
        }
      ],
      "stateMutability": "view",
      "type": "function"
    },
    {
      "inputs": [],
      "name": "votingEndTime",
      "outputs": [
        {
          "internalType": "uint256",
          "name": "",
          "type": "uint256"
        }
      ],
      "stateMutability": "view",
      "type": "function"
    },
    {
      "inputs": [
        {
          "internalType": "address",
          "name": "",
          "type": "address"
        }
      ],
      "name": "votingSessions",
      "outputs": [
        {
          "internalType": "address",
          "name": "admin",
          "type": "address"
        },
        {
          "internalType": "string",
          "name": "orgName",
          "type": "string"
        },
        {
          "internalType": "uint256",
          "name": "startTime",
          "type": "uint256"
        },
        {
          "internalType": "uint256",
          "name": "endTime",
          "type": "uint256"
        }
      ],
      "stateMutability": "view",
      "type": "function"
    },
    {
      "inputs": [],
      "name": "votingStartTime",
      "outputs": [
        {
          "internalType": "uint256",
          "name": "",
          "type": "uint256"
        }
      ],
      "stateMutability": "view",
      "type": "function"
    }
  ],
  "bytecode": "0x60806040523480156200001157600080fd5b5060405162001d1d38038062001d1d833981810160405281019062000037919062000095565b806000806101000a81548173ffffffffffffffffffffffffffffffffffffffff021916908373ffffffffffffffffffffffffffffffffffffffff160217905550506200010f565b6000815190506200008f81620000f5565b92915050565b600060208284031215620000a857600080fd5b6000620000b8848285016200007e565b91505092915050565b6000620000ce82620000d5565b9050919050565b600073ffffffffffffffffffffffffffffffffffffffff82169050919050565b6200010081620000c1565b81146200010c57600080fd5b50565b611bfe806200011f6000396000f3fe608060405234801561001057600080fd5b50600436106100b45760003560e01c80636f6379e3116100715780636f6379e314610190578063a9a981a3146101ae578063ad71f8dc146101cc578063b2c2f2e8146101e8578063d6cdf3bd14610218578063f851a4401461024b576100b4565b80631ea736e0146100b95780632019a608146100d757806324f99b1e146100f557806329268226146101115780633477ee2e1461012d57806335b8e82014610160575b600080fd5b6100c1610269565b6040516100ce9190611792565b60405180910390f35b6100df61026f565b6040516100ec9190611792565b60405180910390f35b61010f600480360381019061010a9190611312565b610275565b005b61012b60048036038101906101269190611312565b6106c2565b005b610147600480360381019061014291906112e9565b61084b565b6040516101579493929190611656565b60405180910390f35b61017a600480360381019061017591906112e9565b610a13565b6040516101879190611770565b60405180910390f35b610198610c00565b6040516101a59190611619565b60405180910390f35b6101b6610c24565b6040516101c39190611792565b60405180910390f35b6101e660048036038101906101e19190611211565b610c2a565b005b61020260048036038101906101fd91906112e9565b610dc2565b60405161020f9190611792565b60405180910390f35b610232600480360381019061022d91906111bf565b610e32565b60405161024294939291906115cd565b60405180910390f35b610253610f0a565b60405161026091906115b2565b60405180910390f35b60025481565b60035481565b603c600254610284919061183b565b4211156102c6576040517f08c379a00000000000000000000000000000000000000000000000000000000081526004016102bd906116b0565b60405180910390fd5b600160009054906101000a900473ffffffffffffffffffffffffffffffffffffffff1673ffffffffffffffffffffffffffffffffffffffff163373ffffffffffffffffffffffffffffffffffffffff161415610357576040517f08c379a000000000000000000000000000000000000000000000000000000000815260040161034e906116d0565b60405180910390fd5b60008054906101000a900473ffffffffffffffffffffffffffffffffffffffff1673ffffffffffffffffffffffffffffffffffffffff1663579a6988846040518263ffffffff1660e01b81526004016103b09190611792565b60206040518083038186803b1580156103c857600080fd5b505afa1580156103dc573d6000803e3d6000fd5b505050506040513d601f19601f8201168201806040525081019061040091906111e8565b61043f576040517f08c379a0000000000000000000000000000000000000000000000000000000008152600401610436906116f0565b60405180910390fd5b60008054906101000a900473ffffffffffffffffffffffffffffffffffffffff1673ffffffffffffffffffffffffffffffffffffffff1663ecca031f846040518263ffffffff1660e01b81526004016104989190611792565b60206040518083038186803b1580156104b057600080fd5b505afa1580156104c4573d6000803e3d6000fd5b505050506040513d601f19601f820116820180604052508101906104e891906111e8565b15610528576040517f08c379a000000000000000000000000000000000000000000000000000000000815260040161051f90611750565b60405180910390fd5b60008211801561053a57506006548211155b610579576040517f08c379a000000000000000000000000000000000000000000000000000000000815260040161057090611730565b60405180910390fd5b6004600083815260200190815260200160002060030160008154809291906105a0906119a6565b9190505550600160008054906101000a900473ffffffffffffffffffffffffffffffffffffffff1673ffffffffffffffffffffffffffffffffffffffff1663d07bff0c856040518263ffffffff1660e01b81526004016106009190611792565b60006040518083038186803b15801561061857600080fd5b505afa15801561062c573d6000803e3d6000fd5b505050506040513d6000823e3d601f19601f8201168201806040525081019061065591906112a8565b606001901515908115158152505080604051610671919061159b565b6040518091039020823373ffffffffffffffffffffffffffffffffffffffff167f41aeb55eef25a94e94aeac300a628610ffa8099eb2bf991b3ae640d42233467d60405160405180910390a4505050565b816002819055508260038190555033600160006101000a81548173ffffffffffffffffffffffffffffffffffffffff021916908373ffffffffffffffffffffffffffffffffffffffff1602179055506040518060800160405280600160009054906101000a900473ffffffffffffffffffffffffffffffffffffffff1673ffffffffffffffffffffffffffffffffffffffff1681526020018281526020018481526020018381525060056000600160009054906101000a900473ffffffffffffffffffffffffffffffffffffffff1673ffffffffffffffffffffffffffffffffffffffff1673ffffffffffffffffffffffffffffffffffffffff16815260200190815260200160002060008201518160000160006101000a81548173ffffffffffffffffffffffffffffffffffffffff021916908373ffffffffffffffffffffffffffffffffffffffff160217905550602082015181600101908051906020019061082e929190610f30565b506040820151816002015560608201518160030155905050505050565b600460205280600052604060002060009150905080600001805461086e90611943565b80601f016020809104026020016040519081016040528092919081815260200182805461089a90611943565b80156108e75780601f106108bc576101008083540402835291602001916108e7565b820191906000526020600020905b8154815290600101906020018083116108ca57829003601f168201915b5050505050908060010180546108fc90611943565b80601f016020809104026020016040519081016040528092919081815260200182805461092890611943565b80156109755780601f1061094a57610100808354040283529160200191610975565b820191906000526020600020905b81548152906001019060200180831161095857829003601f168201915b50505050509080600201805461098a90611943565b80601f01602080910402602001604051908101604052809291908181526020018280546109b690611943565b8015610a035780601f106109d857610100808354040283529160200191610a03565b820191906000526020600020905b8154815290600101906020018083116109e657829003601f168201915b5050505050908060030154905084565b610a1b610fb6565b60046000838152602001908152602001600020604051806080016040529081600082018054610a4990611943565b80601f0160208091040260200160405190810160405280929190818152602001828054610a7590611943565b8015610ac25780601f10610a9757610100808354040283529160200191610ac2565b820191906000526020600020905b815481529060010190602001808311610aa557829003601f168201915b50505050508152602001600182018054610adb90611943565b80601f0160208091040260200160405190810160405280929190818152602001828054610b0790611943565b8015610b545780601f10610b2957610100808354040283529160200191610b54565b820191906000526020600020905b815481529060010190602001808311610b3757829003601f168201915b50505050508152602001600282018054610b6d90611943565b80601f0160208091040260200160405190810160405280929190818152602001828054610b9990611943565b8015610be65780601f10610bbb57610100808354040283529160200191610be6565b820191906000526020600020905b815481529060010190602001808311610bc957829003601f168201915b505050505081526020016003820154815250509050919050565b60008054906101000a900473ffffffffffffffffffffffffffffffffffffffff1681565b60065481565b600160009054906101000a900473ffffffffffffffffffffffffffffffffffffffff1673ffffffffffffffffffffffffffffffffffffffff163373ffffffffffffffffffffffffffffffffffffffff1614610cba576040517f08c379a0000000000000000000000000000000000000000000000000000000008152600401610cb190611710565b60405180910390fd5b60066000815480929190610ccd906119a6565b9190505550604051806080016040528084815260200183815260200182815260200160008152506004600060065481526020019081526020016000206000820151816000019080519060200190610d25929190610f30565b506020820151816001019080519060200190610d42929190610f30565b506040820151816002019080519060200190610d5f929190610f30565b506060820151816003015590505081604051610d7b919061159b565b60405180910390206006547fe64f834082661dd9ed89427b87edb6270fd6dad17198b0938f0edd058914c87f85604051610db59190611634565b60405180910390a3505050565b60008082118015610dd557506006548211155b610e14576040517f08c379a0000000000000000000000000000000000000000000000000000000008152600401610e0b90611730565b60405180910390fd5b60046000838152602001908152602001600020600301549050919050565b60056020528060005260406000206000915090508060000160009054906101000a900473ffffffffffffffffffffffffffffffffffffffff1690806001018054610e7b90611943565b80601f0160208091040260200160405190810160405280929190818152602001828054610ea790611943565b8015610ef45780601f10610ec957610100808354040283529160200191610ef4565b820191906000526020600020905b815481529060010190602001808311610ed757829003601f168201915b5050505050908060020154908060030154905084565b600160009054906101000a900473ffffffffffffffffffffffffffffffffffffffff1681565b828054610f3c90611943565b90600052602060002090601f016020900481019282610f5e5760008555610fa5565b82601f10610f7757805160ff1916838001178555610fa5565b82800160010185558215610fa5579182015b82811115610fa4578251825591602001919060010190610f89565b5b509050610fb29190610fde565b5090565b6040518060800160405280606081526020016060815260200160608152602001600081525090565b5b80821115610ff7576000816000905550600101610fdf565b5090565b600061100e611009846117d2565b6117ad565b90508281526020810184848401111561102657600080fd5b611031848285611901565b509392505050565b600061104c611047846117d2565b6117ad565b90508281526020810184848401111561106457600080fd5b61106f848285611910565b509392505050565b60008135905061108681611b83565b92915050565b60008151905061109b81611b83565b92915050565b6000815190506110b081611b9a565b92915050565b600082601f8301126110c757600080fd5b81356110d7848260208601610ffb565b91505092915050565b600082601f8301126110f157600080fd5b8151611101848260208601611039565b91505092915050565b600060a0828403121561111c57600080fd5b61112660a06117ad565b905060006111368482850161108c565b600083015250602082015167ffffffffffffffff81111561115657600080fd5b611162848285016110e0565b6020830152506040611176848285016110a1565b604083015250606061118a848285016110a1565b606083015250608061119e848285016110a1565b60808301525092915050565b6000813590506111b981611bb1565b92915050565b6000602082840312156111d157600080fd5b60006111df84828501611077565b91505092915050565b6000602082840312156111fa57600080fd5b6000611208848285016110a1565b91505092915050565b60008060006060848603121561122657600080fd5b600084013567ffffffffffffffff81111561124057600080fd5b61124c868287016110b6565b935050602084013567ffffffffffffffff81111561126957600080fd5b611275868287016110b6565b925050604084013567ffffffffffffffff81111561129257600080fd5b61129e868287016110b6565b9150509250925092565b6000602082840312156112ba57600080fd5b600082015167ffffffffffffffff8111156112d457600080fd5b6112e08482850161110a565b91505092915050565b6000602082840312156112fb57600080fd5b6000611309848285016111aa565b91505092915050565b60008060006060848603121561132757600080fd5b6000611335868287016111aa565b9350506020611346868287016111aa565b925050604084013567ffffffffffffffff81111561136357600080fd5b61136f868287016110b6565b9150509250925092565b61138281611895565b82525050565b611391816118dd565b82525050565b60006113a282611803565b6113ac818561180e565b93506113bc818560208601611910565b6113c581611a7c565b840191505092915050565b60006113db82611803565b6113e5818561181f565b93506113f5818560208601611910565b6113fe81611a7c565b840191505092915050565b600061141482611803565b61141e8185611830565b935061142e818560208601611910565b80840191505092915050565b600061144760108361181f565b915061145282611a8d565b602082019050919050565b600061146a60108361181f565b915061147582611ab6565b602082019050919050565b600061148d601e8361181f565b915061149882611adf565b602082019050919050565b60006114b0601b8361181f565b91506114bb82611b08565b602082019050919050565b60006114d360148361181f565b91506114de82611b31565b602082019050919050565b60006114f660168361181f565b915061150182611b5a565b602082019050919050565b600060808301600083015184820360008601526115298282611397565b915050602083015184820360208601526115438282611397565b9150506040830151848203604086015261155d8282611397565b9150506060830151611572606086018261157d565b508091505092915050565b611586816118d3565b82525050565b611595816118d3565b82525050565b60006115a78284611409565b915081905092915050565b60006020820190506115c76000830184611379565b92915050565b60006080820190506115e26000830187611379565b81810360208301526115f481866113d0565b9050611603604083018561158c565b611610606083018461158c565b95945050505050565b600060208201905061162e6000830184611388565b92915050565b6000602082019050818103600083015261164e81846113d0565b905092915050565b6000608082019050818103600083015261167081876113d0565b9050818103602083015261168481866113d0565b9050818103604083015261169881856113d0565b90506116a7606083018461158c565b95945050505050565b600060208201905081810360008301526116c98161143a565b9050919050565b600060208201905081810360008301526116e98161145d565b9050919050565b6000602082019050818103600083015261170981611480565b9050919050565b60006020820190508181036000830152611729816114a3565b9050919050565b60006020820190508181036000830152611749816114c6565b9050919050565b60006020820190508181036000830152611769816114e9565b9050919050565b6000602082019050818103600083015261178a818461150c565b905092915050565b60006020820190506117a7600083018461158c565b92915050565b60006117b76117c8565b90506117c38282611975565b919050565b6000604051905090565b600067ffffffffffffffff8211156117ed576117ec611a4d565b5b6117f682611a7c565b9050602081019050919050565b600081519050919050565b600082825260208201905092915050565b600082825260208201905092915050565b600081905092915050565b6000611846826118d3565b9150611851836118d3565b9250817fffffffffffffffffffffffffffffffffffffffffffffffffffffffffffffffff048311821515161561188a576118896119ef565b5b828202905092915050565b60006118a0826118b3565b9050919050565b60008115159050919050565b600073ffffffffffffffffffffffffffffffffffffffff82169050919050565b6000819050919050565b60006118e8826118ef565b9050919050565b60006118fa826118b3565b9050919050565b82818337600083830152505050565b60005b8381101561192e578082015181840152602081019050611913565b8381111561193d576000848401525b50505050565b6000600282049050600182168061195b57607f821691505b6020821081141561196f5761196e611a1e565b5b50919050565b61197e82611a7c565b810181811067ffffffffffffffff8211171561199d5761199c611a4d565b5b80604052505050565b60006119b1826118d3565b91507fffffffffffffffffffffffffffffffffffffffffffffffffffffffffffffffff8214156119e4576119e36119ef565b5b600182019050919050565b7f4e487b7100000000000000000000000000000000000000000000000000000000600052601160045260246000fd5b7f4e487b7100000000000000000000000000000000000000000000000000000000600052602260045260246000fd5b7f4e487b7100000000000000000000000000000000000000000000000000000000600052604160045260246000fd5b6000601f19601f8301169050919050565b7f566f74696e672068617320656e64656400000000000000000000000000000000600082015250565b7f41646d696e2063616e277420766f746500000000000000000000000000000000600082015250565b7f596f7520617265206e6f742061207265676973746572656420766f7465720000600082015250565b7f4f6e6c792061646d696e2063616e206578656375746520746869730000000000600082015250565b7f496e76616c69642063616e646964617465204944000000000000000000000000600082015250565b7f596f75206861766520616c726561647920766f74656400000000000000000000600082015250565b611b8c81611895565b8114611b9757600080fd5b50565b611ba3816118a7565b8114611bae57600080fd5b50565b611bba816118d3565b8114611bc557600080fd5b5056fea2646970667358221220dfd6c5e9d9b7c3a64ece117a1d6e4fefc281a6030943403ee9dce532e089248464736f6c63430008040033",
  "linkReferences": {},
  "deployedLinkReferences": {}
}